{
  "_format": "hh-sol-artifact-1",
  "contractName": "Raffle",
  "sourceName": "contracts/Lottery.sol",
  "abi": [
    {
      "inputs": [
        {
          "internalType": "uint256",
          "name": "entranceFee",
          "type": "uint256"
        },
        {
          "internalType": "address",
          "name": "vrfCoordinator",
          "type": "address"
        },
        {
          "internalType": "bytes32",
          "name": "keyHash",
          "type": "bytes32"
        },
        {
          "internalType": "uint64",
          "name": "subscriptionId",
          "type": "uint64"
        },
        {
          "internalType": "uint32",
          "name": "callbackGasLimit",
          "type": "uint32"
        },
        {
          "internalType": "uint256",
          "name": "interval",
          "type": "uint256"
        }
      ],
      "stateMutability": "nonpayable",
      "type": "constructor"
    },
    {
      "inputs": [
        {
          "internalType": "address",
          "name": "have",
          "type": "address"
        },
        {
          "internalType": "address",
          "name": "want",
          "type": "address"
        }
      ],
      "name": "OnlyCoordinatorCanFulfill",
      "type": "error"
    },
    {
      "inputs": [],
      "name": "Raffle__NotEnoughETH",
      "type": "error"
    },
    {
      "inputs": [],
      "name": "Raffle__NotOpen",
      "type": "error"
    },
    {
      "inputs": [
        {
          "internalType": "uint256",
          "name": "balance",
          "type": "uint256"
        },
        {
          "internalType": "uint256",
          "name": "players",
          "type": "uint256"
        },
        {
          "internalType": "uint256",
          "name": "RaffleState",
          "type": "uint256"
        }
      ],
      "name": "Raffle__UpKeepNotMet",
      "type": "error"
    },
    {
      "inputs": [],
      "name": "Raffle__transactionFailed",
      "type": "error"
    },
    {
      "anonymous": false,
      "inputs": [
        {
          "indexed": true,
          "internalType": "address",
          "name": "players",
          "type": "address"
        }
      ],
      "name": "Players",
      "type": "event"
    },
    {
      "anonymous": false,
      "inputs": [
        {
          "indexed": true,
          "internalType": "uint256",
          "name": "requestId",
          "type": "uint256"
        }
      ],
      "name": "RequestRaffleWinner",
      "type": "event"
    },
    {
      "anonymous": false,
      "inputs": [
        {
          "indexed": true,
          "internalType": "address",
          "name": "winner",
          "type": "address"
        }
      ],
      "name": "WinnerPicked",
      "type": "event"
    },
    {
      "inputs": [
        {
          "internalType": "bytes",
          "name": "",
          "type": "bytes"
        }
      ],
      "name": "checkUpkeep",
      "outputs": [
        {
          "internalType": "bool",
          "name": "upkeepNeeded",
          "type": "bool"
        },
        {
          "internalType": "bytes",
          "name": "",
          "type": "bytes"
        }
      ],
      "stateMutability": "view",
      "type": "function"
    },
    {
      "inputs": [],
      "name": "enterRaffle",
      "outputs": [],
      "stateMutability": "payable",
      "type": "function"
    },
    {
      "inputs": [],
      "name": "getFee",
      "outputs": [
        {
          "internalType": "uint256",
          "name": "",
          "type": "uint256"
        }
      ],
      "stateMutability": "view",
      "type": "function"
    },
    {
      "inputs": [],
      "name": "getLatestTimeStanp",
      "outputs": [
        {
          "internalType": "uint256",
          "name": "",
          "type": "uint256"
        }
      ],
      "stateMutability": "view",
      "type": "function"
    },
    {
      "inputs": [],
      "name": "getNumPlayers",
      "outputs": [
        {
          "internalType": "uint256",
          "name": "",
          "type": "uint256"
        }
      ],
      "stateMutability": "view",
      "type": "function"
    },
    {
      "inputs": [],
      "name": "getNumWords",
      "outputs": [
        {
          "internalType": "uint256",
          "name": "",
          "type": "uint256"
        }
      ],
      "stateMutability": "pure",
      "type": "function"
    },
    {
      "inputs": [],
      "name": "getRaffleState",
      "outputs": [
        {
          "internalType": "enum Raffle.RaffleState",
          "name": "",
          "type": "uint8"
        }
      ],
      "stateMutability": "view",
      "type": "function"
    },
    {
      "inputs": [],
      "name": "getRecentWinner",
      "outputs": [
        {
          "internalType": "address",
          "name": "",
          "type": "address"
        }
      ],
      "stateMutability": "view",
      "type": "function"
    },
    {
      "inputs": [],
      "name": "getRequestConf",
      "outputs": [
        {
          "internalType": "uint256",
          "name": "",
          "type": "uint256"
        }
      ],
      "stateMutability": "pure",
      "type": "function"
    },
    {
      "inputs": [
        {
          "internalType": "bytes",
          "name": "",
          "type": "bytes"
        }
      ],
      "name": "performUpkeep",
      "outputs": [],
      "stateMutability": "nonpayable",
      "type": "function"
    },
    {
      "inputs": [
        {
          "internalType": "uint256",
          "name": "requestId",
          "type": "uint256"
        },
        {
          "internalType": "uint256[]",
          "name": "randomWords",
          "type": "uint256[]"
        }
      ],
      "name": "rawFulfillRandomWords",
      "outputs": [],
      "stateMutability": "nonpayable",
      "type": "function"
    }
  ],
  "bytecode": "0x6101006040523480156200001257600080fd5b5060405162001684380380620016848339818101604052810190620000389190620002aa565b848073ffffffffffffffffffffffffffffffffffffffff1660808173ffffffffffffffffffffffffffffffffffffffff168152505050856000819055506000600260006101000a81548160ff021916908360018111156200009e576200009d62000346565b5b02179055508473ffffffffffffffffffffffffffffffffffffffff1660a08173ffffffffffffffffffffffffffffffffffffffff16815250508360c0818152505082600260016101000a81548167ffffffffffffffff021916908367ffffffffffffffff16021790555081600260096101000a81548163ffffffff021916908363ffffffff160217905550426004819055508060e0818152505050505050505062000375565b600080fd5b6000819050919050565b6200015e8162000149565b81146200016a57600080fd5b50565b6000815190506200017e8162000153565b92915050565b600073ffffffffffffffffffffffffffffffffffffffff82169050919050565b6000620001b18262000184565b9050919050565b620001c381620001a4565b8114620001cf57600080fd5b50565b600081519050620001e381620001b8565b92915050565b6000819050919050565b620001fe81620001e9565b81146200020a57600080fd5b50565b6000815190506200021e81620001f3565b92915050565b600067ffffffffffffffff82169050919050565b620002438162000224565b81146200024f57600080fd5b50565b600081519050620002638162000238565b92915050565b600063ffffffff82169050919050565b620002848162000269565b81146200029057600080fd5b50565b600081519050620002a48162000279565b92915050565b60008060008060008060c08789031215620002ca57620002c962000144565b5b6000620002da89828a016200016d565b9650506020620002ed89828a01620001d2565b95505060406200030089828a016200020d565b94505060606200031389828a0162000252565b93505060806200032689828a0162000293565b92505060a06200033989828a016200016d565b9150509295509295509295565b7f4e487b7100000000000000000000000000000000000000000000000000000000600052602160045260246000fd5b60805160a05160c05160e0516112ce620003b660003960006107100152600061058e0152600061055201526000818161028b01526102df01526112ce6000f3fe60806040526004361061009c5760003560e01c8063473f1ddc11610064578063473f1ddc1461015357806353a2c19a1461017e57806355c9e926146101a95780636e04ff0d146101d4578063ced72f8714610212578063fa727fdc1461023d5761009c565b80630cc946aa146100a1578063115cbaf5146100cc5780631fe543e3146100f75780632cfcc539146101205780634585e33b1461012a575b600080fd5b3480156100ad57600080fd5b506100b6610268565b6040516100c39190610a85565b60405180910390f35b3480156100d857600080fd5b506100e1610272565b6040516100ee9190610b17565b60405180910390f35b34801561010357600080fd5b5061011e60048036038101906101199190610ccb565b610289565b005b610128610349565b005b34801561013657600080fd5b50610151600480360381019061014c9190610d82565b61049a565b005b34801561015f57600080fd5b50610168610673565b6040516101759190610e10565b60405180910390f35b34801561018a57600080fd5b5061019361069d565b6040516101a09190610a85565b60405180910390f35b3480156101b557600080fd5b506101be6106ac565b6040516101cb9190610a85565b60405180910390f35b3480156101e057600080fd5b506101fb60048036038101906101f69190610ee0565b6106b9565b604051610209929190610fc3565b60405180910390f35b34801561021e57600080fd5b5061022761077c565b6040516102349190610a85565b60405180910390f35b34801561024957600080fd5b50610252610785565b60405161025f9190610a85565b60405180910390f35b6000600454905090565b6000600260009054906101000a900460ff16905090565b7f000000000000000000000000000000000000000000000000000000000000000073ffffffffffffffffffffffffffffffffffffffff163373ffffffffffffffffffffffffffffffffffffffff161461033b57337f00000000000000000000000000000000000000000000000000000000000000006040517f1cf993f4000000000000000000000000000000000000000000000000000000008152600401610332929190610ff3565b60405180910390fd5b6103458282610792565b5050565b600054341015610385576040517f9894879b00000000000000000000000000000000000000000000000000000000815260040160405180910390fd5b6000600181111561039957610398610aa0565b5b600260009054906101000a900460ff1660018111156103bb576103ba610aa0565b5b146103f2576040517f1425571c00000000000000000000000000000000000000000000000000000000815260040160405180910390fd5b6001339080600181540180825580915050600190039060005260206000200160009091909190916101000a81548173ffffffffffffffffffffffffffffffffffffffff021916908373ffffffffffffffffffffffffffffffffffffffff1602179055503373ffffffffffffffffffffffffffffffffffffffff167f2bff8dd6ef2fbbf76cb640f7c19347dfc018e00759723b4a1cc4e0afa8f4add160405160405180910390a2565b60006104b4604051806020016040528060008152506106b9565b509050806105235747600180549050600260009054906101000a900460ff1660018111156104e5576104e4610aa0565b5b6040517f49bbff1d00000000000000000000000000000000000000000000000000000000815260040161051a9392919061101c565b60405180910390fd5b6001600260006101000a81548160ff0219169083600181111561054957610548610aa0565b5b021790555060007f000000000000000000000000000000000000000000000000000000000000000073ffffffffffffffffffffffffffffffffffffffff16635d3b1d307f0000000000000000000000000000000000000000000000000000000000000000600260019054906101000a900467ffffffffffffffff166003600260099054906101000a900463ffffffff1660016040518663ffffffff1660e01b81526004016105fb9594939291906110cb565b6020604051808303816000875af115801561061a573d6000803e3d6000fd5b505050506040513d601f19601f8201168201806040525081019061063e9190611133565b9050807fde6349b018d6c03d837b67d9a198a6ba4842546f2295fe963fae141e5dbaef8160405160405180910390a250505050565b6000600360009054906101000a900473ffffffffffffffffffffffffffffffffffffffff16905090565b6000600163ffffffff16905090565b6000600180549050905090565b6000606060008060018111156106d2576106d1610aa0565b5b600260009054906101000a900460ff1660018111156106f4576106f3610aa0565b5b14905060008060018054905011905060008060005411905060007f00000000000000000000000000000000000000000000000000000000000000006004544261073d919061118f565b11905083801561074a5750815b80156107535750825b801561075c5750805b955085604051806020016040528060008152509550955050505050915091565b60008054905090565b6000600361ffff16905090565b6000600180549050826000815181106107ae576107ad6111c3565b5b60200260200101516107c09190611221565b90506000600182815481106107d8576107d76111c3565b5b9060005260206000200160009054906101000a900473ffffffffffffffffffffffffffffffffffffffff16905080600360006101000a81548173ffffffffffffffffffffffffffffffffffffffff021916908373ffffffffffffffffffffffffffffffffffffffff1602179055506000600260006101000a81548160ff0219169083600181111561086c5761086b610aa0565b5b0217905550600067ffffffffffffffff81111561088c5761088b610b88565b5b6040519080825280602002602001820160405280156108ba5781602001602082028036833780820191505090505b50600190805190602001906108d09291906109c5565b504260048190555060008173ffffffffffffffffffffffffffffffffffffffff16476040516108fe90611283565b60006040518083038185875af1925050503d806000811461093b576040519150601f19603f3d011682016040523d82523d6000602084013e610940565b606091505b505090508061097b576040517ffcb36ff200000000000000000000000000000000000000000000000000000000815260040160405180910390fd5b8173ffffffffffffffffffffffffffffffffffffffff167f5b690ec4a06fe979403046eaeea5b3ce38524683c3001f662c8b5a829632f7df60405160405180910390a25050505050565b828054828255906000526020600020908101928215610a3e579160200282015b82811115610a3d5782518260006101000a81548173ffffffffffffffffffffffffffffffffffffffff021916908373ffffffffffffffffffffffffffffffffffffffff160217905550916020019190600101906109e5565b5b509050610a4b9190610a4f565b5090565b5b80821115610a68576000816000905550600101610a50565b5090565b6000819050919050565b610a7f81610a6c565b82525050565b6000602082019050610a9a6000830184610a76565b92915050565b7f4e487b7100000000000000000000000000000000000000000000000000000000600052602160045260246000fd5b60028110610ae057610adf610aa0565b5b50565b6000819050610af182610acf565b919050565b6000610b0182610ae3565b9050919050565b610b1181610af6565b82525050565b6000602082019050610b2c6000830184610b08565b92915050565b6000604051905090565b600080fd5b600080fd5b610b4f81610a6c565b8114610b5a57600080fd5b50565b600081359050610b6c81610b46565b92915050565b600080fd5b6000601f19601f8301169050919050565b7f4e487b7100000000000000000000000000000000000000000000000000000000600052604160045260246000fd5b610bc082610b77565b810181811067ffffffffffffffff82111715610bdf57610bde610b88565b5b80604052505050565b6000610bf2610b32565b9050610bfe8282610bb7565b919050565b600067ffffffffffffffff821115610c1e57610c1d610b88565b5b602082029050602081019050919050565b600080fd5b6000610c47610c4284610c03565b610be8565b90508083825260208201905060208402830185811115610c6a57610c69610c2f565b5b835b81811015610c935780610c7f8882610b5d565b845260208401935050602081019050610c6c565b5050509392505050565b600082601f830112610cb257610cb1610b72565b5b8135610cc2848260208601610c34565b91505092915050565b60008060408385031215610ce257610ce1610b3c565b5b6000610cf085828601610b5d565b925050602083013567ffffffffffffffff811115610d1157610d10610b41565b5b610d1d85828601610c9d565b9150509250929050565b600080fd5b60008083601f840112610d4257610d41610b72565b5b8235905067ffffffffffffffff811115610d5f57610d5e610d27565b5b602083019150836001820283011115610d7b57610d7a610c2f565b5b9250929050565b60008060208385031215610d9957610d98610b3c565b5b600083013567ffffffffffffffff811115610db757610db6610b41565b5b610dc385828601610d2c565b92509250509250929050565b600073ffffffffffffffffffffffffffffffffffffffff82169050919050565b6000610dfa82610dcf565b9050919050565b610e0a81610def565b82525050565b6000602082019050610e256000830184610e01565b92915050565b600080fd5b600067ffffffffffffffff821115610e4b57610e4a610b88565b5b610e5482610b77565b9050602081019050919050565b82818337600083830152505050565b6000610e83610e7e84610e30565b610be8565b905082815260208101848484011115610e9f57610e9e610e2b565b5b610eaa848285610e61565b509392505050565b600082601f830112610ec757610ec6610b72565b5b8135610ed7848260208601610e70565b91505092915050565b600060208284031215610ef657610ef5610b3c565b5b600082013567ffffffffffffffff811115610f1457610f13610b41565b5b610f2084828501610eb2565b91505092915050565b60008115159050919050565b610f3e81610f29565b82525050565b600081519050919050565b600082825260208201905092915050565b60005b83811015610f7e578082015181840152602081019050610f63565b60008484015250505050565b6000610f9582610f44565b610f9f8185610f4f565b9350610faf818560208601610f60565b610fb881610b77565b840191505092915050565b6000604082019050610fd86000830185610f35565b8181036020830152610fea8184610f8a565b90509392505050565b60006040820190506110086000830185610e01565b6110156020830184610e01565b9392505050565b60006060820190506110316000830186610a76565b61103e6020830185610a76565b61104b6040830184610a76565b949350505050565b6000819050919050565b61106681611053565b82525050565b600067ffffffffffffffff82169050919050565b6110898161106c565b82525050565b600061ffff82169050919050565b6110a68161108f565b82525050565b600063ffffffff82169050919050565b6110c5816110ac565b82525050565b600060a0820190506110e0600083018861105d565b6110ed6020830187611080565b6110fa604083018661109d565b61110760608301856110bc565b61111460808301846110bc565b9695505050505050565b60008151905061112d81610b46565b92915050565b60006020828403121561114957611148610b3c565b5b60006111578482850161111e565b91505092915050565b7f4e487b7100000000000000000000000000000000000000000000000000000000600052601160045260246000fd5b600061119a82610a6c565b91506111a583610a6c565b92508282039050818111156111bd576111bc611160565b5b92915050565b7f4e487b7100000000000000000000000000000000000000000000000000000000600052603260045260246000fd5b7f4e487b7100000000000000000000000000000000000000000000000000000000600052601260045260246000fd5b600061122c82610a6c565b915061123783610a6c565b925082611247576112466111f2565b5b828206905092915050565b600081905092915050565b50565b600061126d600083611252565b91506112788261125d565b600082019050919050565b600061128e82611260565b915081905091905056fea264697066735822122012c40ead4eae8d785325536fab84e57e086f8bb9da0a52b9b1fd49f7f475dcf364736f6c63430008130033",
  "linkReferences": {},
  "deployedLinkReferences": {}
}